{
  "_format": "hh-sol-artifact-1",
  "contractName": "Medikai",
  "sourceName": "contracts/PatientMedicalRecordSystem.sol",
  "abi": [
    {
      "inputs": [],
      "stateMutability": "nonpayable",
      "type": "constructor"
    },
    {
      "inputs": [],
      "name": "PatientMedicalRecords__NotDoctor",
      "type": "error"
    },
    {
      "inputs": [],
      "name": "PatientMedicalRecords__NotOwner",
      "type": "error"
    },
    {
      "inputs": [],
      "name": "PatientMedicalRecords__NotPatient",
      "type": "error"
    },
    {
      "anonymous": false,
      "inputs": [
        {
          "indexed": true,
          "internalType": "address",
          "name": "doctorAddress",
          "type": "address"
        },
        {
          "indexed": false,
          "internalType": "string",
          "name": "name",
          "type": "string"
        },
        {
          "indexed": false,
          "internalType": "string",
          "name": "doctorRegistrationId",
          "type": "string"
        },
        {
          "indexed": true,
          "internalType": "uint256",
          "name": "dateOfRegistration",
          "type": "uint256"
        },
        {
          "indexed": false,
          "internalType": "string",
          "name": "specialization",
          "type": "string"
        },
        {
          "indexed": true,
          "internalType": "address",
          "name": "hospitalAddress",
          "type": "address"
        }
      ],
      "name": "AddedDoctor",
      "type": "event"
    },
    {
      "anonymous": false,
      "inputs": [
        {
          "indexed": true,
          "internalType": "address",
          "name": "hospitalAddress",
          "type": "address"
        },
        {
          "indexed": false,
          "internalType": "string",
          "name": "name",
          "type": "string"
        },
        {
          "indexed": false,
          "internalType": "string",
          "name": "hospitalRegistrationId",
          "type": "string"
        },
        {
          "indexed": true,
          "internalType": "uint256",
          "name": "dateOfRegistration",
          "type": "uint256"
        },
        {
          "indexed": false,
          "internalType": "string",
          "name": "email",
          "type": "string"
        },
        {
          "indexed": false,
          "internalType": "string",
          "name": "phoneNumber",
          "type": "string"
        }
      ],
      "name": "AddedHospital",
      "type": "event"
    },
    {
      "anonymous": false,
      "inputs": [
        {
          "indexed": true,
          "internalType": "address",
          "name": "patientAddress",
          "type": "address"
        },
        {
          "indexed": false,
          "internalType": "string",
          "name": "name",
          "type": "string"
        },
        {
          "indexed": false,
          "internalType": "string[]",
          "name": "chronicHash",
          "type": "string[]"
        },
        {
          "indexed": true,
          "internalType": "uint256",
          "name": "dob",
          "type": "uint256"
        },
        {
          "indexed": false,
          "internalType": "string",
          "name": "bloodGroup",
          "type": "string"
        },
        {
          "indexed": true,
          "internalType": "uint256",
          "name": "dateOfRegistration",
          "type": "uint256"
        },
        {
          "indexed": false,
          "internalType": "string",
          "name": "publicKey",
          "type": "string"
        },
        {
          "indexed": false,
          "internalType": "string[]",
          "name": "vaccinationHash",
          "type": "string[]"
        },
        {
          "indexed": false,
          "internalType": "string",
          "name": "phoneNumber",
          "type": "string"
        },
        {
          "indexed": false,
          "internalType": "string[]",
          "name": "accidentHash",
          "type": "string[]"
        },
        {
          "indexed": false,
          "internalType": "string[]",
          "name": "acuteHash",
          "type": "string[]"
        }
      ],
      "name": "AddedPatient",
      "type": "event"
    },
    {
      "anonymous": false,
      "inputs": [
        {
          "indexed": true,
          "internalType": "address",
          "name": "patientAddress",
          "type": "address"
        },
        {
          "indexed": false,
          "internalType": "string",
          "name": "publicKey",
          "type": "string"
        }
      ],
      "name": "AddedPublicKey",
      "type": "event"
    },
    {
      "inputs": [
        {
          "internalType": "address",
          "name": "_doctorAddress",
          "type": "address"
        },
        {
          "internalType": "string",
          "name": "_name",
          "type": "string"
        },
        {
          "internalType": "string",
          "name": "_doctorRegistrationId",
          "type": "string"
        },
        {
          "internalType": "uint256",
          "name": "_dateOfRegistration",
          "type": "uint256"
        },
        {
          "internalType": "string",
          "name": "_specialization",
          "type": "string"
        },
        {
          "internalType": "address",
          "name": "_hospitalAddress",
          "type": "address"
        }
      ],
      "name": "addDoctorDetails",
      "outputs": [],
      "stateMutability": "nonpayable",
      "type": "function"
    },
    {
      "inputs": [
        {
          "internalType": "address",
          "name": "_hospitalAddress",
          "type": "address"
        },
        {
          "internalType": "string",
          "name": "_name",
          "type": "string"
        },
        {
          "internalType": "string",
          "name": "_hospitalRegistrationId",
          "type": "string"
        },
        {
          "internalType": "string",
          "name": "_email",
          "type": "string"
        },
        {
          "internalType": "string",
          "name": "_phoneNumber",
          "type": "string"
        }
      ],
      "name": "addHospitalDetails",
      "outputs": [],
      "stateMutability": "nonpayable",
      "type": "function"
    },
    {
      "inputs": [
        {
          "internalType": "address",
          "name": "_patientAddress",
          "type": "address"
        },
        {
          "internalType": "uint16",
          "name": "_category",
          "type": "uint16"
        },
        {
          "internalType": "string",
          "name": "_IpfsHash",
          "type": "string"
        }
      ],
      "name": "addPatientDetails",
      "outputs": [],
      "stateMutability": "nonpayable",
      "type": "function"
    },
    {
      "inputs": [
        {
          "internalType": "address",
          "name": "_doctorAddress",
          "type": "address"
        }
      ],
      "name": "getDoctorDetails",
      "outputs": [
        {
          "internalType": "string",
          "name": "",
          "type": "string"
        },
        {
          "internalType": "string",
          "name": "",
          "type": "string"
        },
        {
          "internalType": "string",
          "name": "",
          "type": "string"
        },
        {
          "internalType": "address",
          "name": "",
          "type": "address"
        }
      ],
      "stateMutability": "view",
      "type": "function"
    },
    {
      "inputs": [
        {
          "internalType": "address",
          "name": "_hospitalAddress",
          "type": "address"
        }
      ],
      "name": "getHospitalDetails",
      "outputs": [
        {
          "internalType": "string",
          "name": "",
          "type": "string"
        },
        {
          "internalType": "string",
          "name": "",
          "type": "string"
        },
        {
          "internalType": "string",
          "name": "",
          "type": "string"
        }
      ],
      "stateMutability": "view",
      "type": "function"
    },
    {
      "inputs": [],
      "name": "getMyDetails",
      "outputs": [
        {
          "components": [
            {
              "internalType": "string",
              "name": "name",
              "type": "string"
            },
            {
              "internalType": "address",
              "name": "patientAddress",
              "type": "address"
            },
            {
              "internalType": "uint256",
              "name": "dob",
              "type": "uint256"
            },
            {
              "internalType": "string",
              "name": "phoneNumber",
              "type": "string"
            },
            {
              "internalType": "string",
              "name": "bloodGroup",
              "type": "string"
            },
            {
              "internalType": "string",
              "name": "publicKey",
              "type": "string"
            },
            {
              "internalType": "uint256",
              "name": "dateOfRegistration",
              "type": "uint256"
            },
            {
              "internalType": "string[]",
              "name": "vaccinationHash",
              "type": "string[]"
            },
            {
              "internalType": "string[]",
              "name": "accidentHash",
              "type": "string[]"
            },
            {
              "internalType": "string[]",
              "name": "chronicHash",
              "type": "string[]"
            },
            {
              "internalType": "string[]",
              "name": "acuteHash",
              "type": "string[]"
            }
          ],
          "internalType": "struct PatientType.Patient",
          "name": "",
          "type": "tuple"
        }
      ],
      "stateMutability": "view",
      "type": "function"
    },
    {
      "inputs": [],
      "name": "getOwner",
      "outputs": [
        {
          "internalType": "address",
          "name": "",
          "type": "address"
        }
      ],
      "stateMutability": "view",
      "type": "function"
    },
    {
      "inputs": [
        {
          "internalType": "address",
          "name": "_patientAddress",
          "type": "address"
        }
      ],
      "name": "getPatientDetails",
      "outputs": [
        {
          "internalType": "string",
          "name": "",
          "type": "string"
        },
        {
          "internalType": "string",
          "name": "",
          "type": "string"
        },
        {
          "internalType": "uint256",
          "name": "",
          "type": "uint256"
        }
      ],
      "stateMutability": "view",
      "type": "function"
    },
    {
      "inputs": [
        {
          "internalType": "address",
          "name": "_patientAddress",
          "type": "address"
        }
      ],
      "name": "getPublicKey",
      "outputs": [
        {
          "internalType": "string",
          "name": "",
          "type": "string"
        }
      ],
      "stateMutability": "view",
      "type": "function"
    },
    {
      "inputs": [
        {
          "internalType": "address",
          "name": "_patientAddress",
          "type": "address"
        },
        {
          "internalType": "string",
          "name": "_name",
          "type": "string"
        },
        {
          "internalType": "uint256",
          "name": "_dob",
          "type": "uint256"
        },
        {
          "internalType": "string",
          "name": "_phoneNumber",
          "type": "string"
        },
        {
          "internalType": "string",
          "name": "_bloodGroup",
          "type": "string"
        },
        {
          "internalType": "string",
          "name": "_publicKey",
          "type": "string"
        }
      ],
      "name": "registerPatient",
      "outputs": [],
      "stateMutability": "nonpayable",
      "type": "function"
    }
  ],
  "bytecode": "0x60a060405234801561001057600080fd5b506001600055336080526080516128ff6100436000396000818161013801528181611579015261198d01526128ff6000f3fe608060405234801561001057600080fd5b506004361061009e5760003560e01c8063893d20e811610066578063893d20e81461012b578063a8c62ea914610162578063b2d5bced14610175578063bab90dbd14610188578063efe2ccc1146101ab57600080fd5b80630bb307a8146100a3578063431bbb7e146100ce57806344bba6aa146100e35780637f0bbba9146100f8578063857cdbb81461010b575b600080fd5b6100b66100b136600461202a565b6101cd565b6040516100c593929190612092565b60405180910390f35b6100d66103ab565b6040516100c5919061212d565b6100f66100f13660046122ef565b6109a9565b005b6100f66101063660046123b5565b610cf2565b61011e61011936600461202a565b6114c2565b6040516100c5919061241c565b6040516001600160a01b037f00000000000000000000000000000000000000000000000000000000000000001681526020016100c5565b6100f661017036600461242f565b61156e565b6100f66101833660046124ed565b611982565b61019b61019636600461202a565b611b48565b6040516100c5949392919061259f565b6101be6101b936600461202a565b611d37565b6040516100c5939291906125f2565b6001600160a01b038116600090815260036020819052604090912080546060928392839290918201906004830190839061020690612628565b80601f016020809104026020016040519081016040528092919081815260200182805461023290612628565b801561027f5780601f106102545761010080835404028352916020019161027f565b820191906000526020600020905b81548152906001019060200180831161026257829003601f168201915b5050505050925081805461029290612628565b80601f01602080910402602001604051908101604052809291908181526020018280546102be90612628565b801561030b5780601f106102e05761010080835404028352916020019161030b565b820191906000526020600020905b8154815290600101906020018083116102ee57829003601f168201915b5050505050915080805461031e90612628565b80601f016020809104026020016040519081016040528092919081815260200182805461034a90612628565b80156103975780601f1061036c57610100808354040283529160200191610397565b820191906000526020600020905b81548152906001019060200180831161037a57829003601f168201915b505050505090509250925092509193909250565b6103b3611ee6565b3360009081526001602052604090819020815161016081019092528054829082906103dd90612628565b80601f016020809104026020016040519081016040528092919081815260200182805461040990612628565b80156104565780601f1061042b57610100808354040283529160200191610456565b820191906000526020600020905b81548152906001019060200180831161043957829003601f168201915b505050918352505060018201546001600160a01b031660208201526002820154604082015260038201805460609092019161049090612628565b80601f01602080910402602001604051908101604052809291908181526020018280546104bc90612628565b80156105095780601f106104de57610100808354040283529160200191610509565b820191906000526020600020905b8154815290600101906020018083116104ec57829003601f168201915b5050505050815260200160048201805461052290612628565b80601f016020809104026020016040519081016040528092919081815260200182805461054e90612628565b801561059b5780601f106105705761010080835404028352916020019161059b565b820191906000526020600020905b81548152906001019060200180831161057e57829003601f168201915b505050505081526020016005820180546105b490612628565b80601f01602080910402602001604051908101604052809291908181526020018280546105e090612628565b801561062d5780601f106106025761010080835404028352916020019161062d565b820191906000526020600020905b81548152906001019060200180831161061057829003601f168201915b505050505081526020016006820154815260200160078201805480602002602001604051908101604052809291908181526020016000905b8282101561071157838290600052602060002001805461068490612628565b80601f01602080910402602001604051908101604052809291908181526020018280546106b090612628565b80156106fd5780601f106106d2576101008083540402835291602001916106fd565b820191906000526020600020905b8154815290600101906020018083116106e057829003601f168201915b505050505081526020019060010190610665565b50505050815260200160088201805480602002602001604051908101604052809291908181526020016000905b828210156107ea57838290600052602060002001805461075d90612628565b80601f016020809104026020016040519081016040528092919081815260200182805461078990612628565b80156107d65780601f106107ab576101008083540402835291602001916107d6565b820191906000526020600020905b8154815290600101906020018083116107b957829003601f168201915b50505050508152602001906001019061073e565b50505050815260200160098201805480602002602001604051908101604052809291908181526020016000905b828210156108c357838290600052602060002001805461083690612628565b80601f016020809104026020016040519081016040528092919081815260200182805461086290612628565b80156108af5780601f10610884576101008083540402835291602001916108af565b820191906000526020600020905b81548152906001019060200180831161089257829003601f168201915b505050505081526020019060010190610817565b505050508152602001600a8201805480602002602001604051908101604052809291908181526020016000905b8282101561099c57838290600052602060002001805461090f90612628565b80601f016020809104026020016040519081016040528092919081815260200182805461093b90612628565b80156109885780601f1061095d57610100808354040283529160200191610988565b820191906000526020600020905b81548152906001019060200180831161096b57829003601f168201915b5050505050815260200190600101906108f0565b5050505081525050905090565b6109b1611e89565b336001600160a01b038716146109da57604051638aa2af0360e01b815260040160405180910390fd5b6109e2611ee6565b8581526001600160a01b03871660208201526040810185905260608101849052608081018390524260c082015260a081018290526000604051908082528060200260200182016040528015610a4b57816020015b6060815260200190600190039081610a365790505b5060e08201526040805160008082526020820190925290610a7c565b6060815260200190600190039081610a675790505b506101008201526040805160008082526020820190925290610aae565b6060815260200190600190039081610a995790505b506101208201526040805160008082526020820190925290610ae0565b6060815260200190600190039081610acb5790505b506101408201526001600160a01b038716600090815260016020526040902081518291908190610b1090826126ad565b5060208201516001820180546001600160a01b0319166001600160a01b039092169190911790556040820151600282015560608201516003820190610b5590826126ad565b5060808201516004820190610b6a90826126ad565b5060a08201516005820190610b7f90826126ad565b5060c0820151600682015560e08201518051610ba5916007840191602090910190611f49565b506101008201518051610bc2916008840191602090910190611f49565b506101208201518051610bdf916009840191602090910190611f49565b506101408201518051610bfc91600a840191602090910190611f49565b5050506001600160a01b0387166000908152600460205260409020610c2183826126ad565b50866001600160a01b03167fab1d74e2ce3421f69d1df69474b469f3896a54f1180e167c15a2ef9057833b4f83604051610c5b919061241c565b60405180910390a28060c001518160400151886001600160a01b03167fab9e5cc24a967589efa8d6741e101ac0ff65a599e9e8c58b0791ddab74ae6041846000015185610120015186608001518760a001518860e0015189606001518a61010001518b6101400151604051610cd79897969594939291906127c2565b60405180910390a450610cea6001600055565b505050505050565b336000818152600260205260409020546001600160a01b03168114610d2a5760405163b2c3ad9960e01b815260040160405180910390fd5b610d32611e89565b8261ffff16600003610d78576001600160a01b0384166000908152600160208181526040832060070180549283018155835290912001610d7283826126ad565b50610e3a565b8261ffff16600103610db8576001600160a01b0384166000908152600160208181526040832060080180549283018155835290912001610d7283826126ad565b8261ffff16600203610df8576001600160a01b0384166000908152600160208181526040832060090180549283018155835290912001610d7283826126ad565b8261ffff16600303610e3a576001600160a01b03841660009081526001602081815260408320600a0180549283018155835290912001610e3883826126ad565b505b6001600160a01b03841660009081526001602052604080822081516101608101909252805482908290610e6c90612628565b80601f0160208091040260200160405190810160405280929190818152602001828054610e9890612628565b8015610ee55780601f10610eba57610100808354040283529160200191610ee5565b820191906000526020600020905b815481529060010190602001808311610ec857829003601f168201915b505050918352505060018201546001600160a01b0316602082015260028201546040820152600382018054606090920191610f1f90612628565b80601f0160208091040260200160405190810160405280929190818152602001828054610f4b90612628565b8015610f985780601f10610f6d57610100808354040283529160200191610f98565b820191906000526020600020905b815481529060010190602001808311610f7b57829003601f168201915b50505050508152602001600482018054610fb190612628565b80601f0160208091040260200160405190810160405280929190818152602001828054610fdd90612628565b801561102a5780601f10610fff5761010080835404028352916020019161102a565b820191906000526020600020905b81548152906001019060200180831161100d57829003601f168201915b5050505050815260200160058201805461104390612628565b80601f016020809104026020016040519081016040528092919081815260200182805461106f90612628565b80156110bc5780601f10611091576101008083540402835291602001916110bc565b820191906000526020600020905b81548152906001019060200180831161109f57829003601f168201915b505050505081526020016006820154815260200160078201805480602002602001604051908101604052809291908181526020016000905b828210156111a057838290600052602060002001805461111390612628565b80601f016020809104026020016040519081016040528092919081815260200182805461113f90612628565b801561118c5780601f106111615761010080835404028352916020019161118c565b820191906000526020600020905b81548152906001019060200180831161116f57829003601f168201915b5050505050815260200190600101906110f4565b50505050815260200160088201805480602002602001604051908101604052809291908181526020016000905b828210156112795783829060005260206000200180546111ec90612628565b80601f016020809104026020016040519081016040528092919081815260200182805461121890612628565b80156112655780601f1061123a57610100808354040283529160200191611265565b820191906000526020600020905b81548152906001019060200180831161124857829003601f168201915b5050505050815260200190600101906111cd565b50505050815260200160098201805480602002602001604051908101604052809291908181526020016000905b828210156113525783829060005260206000200180546112c590612628565b80601f01602080910402602001604051908101604052809291908181526020018280546112f190612628565b801561133e5780601f106113135761010080835404028352916020019161133e565b820191906000526020600020905b81548152906001019060200180831161132157829003601f168201915b5050505050815260200190600101906112a6565b505050508152602001600a8201805480602002602001604051908101604052809291908181526020016000905b8282101561142b57838290600052602060002001805461139e90612628565b80601f01602080910402602001604051908101604052809291908181526020018280546113ca90612628565b80156114175780601f106113ec57610100808354040283529160200191611417565b820191906000526020600020905b8154815290600101906020018083116113fa57829003601f168201915b50505050508152602001906001019061137f565b505050508152505090508060c001518160400151866001600160a01b03167fab9e5cc24a967589efa8d6741e101ac0ff65a599e9e8c58b0791ddab74ae6041846000015185610120015186608001518760a001518860e0015189606001518a61010001518b61014001516040516114a99897969594939291906127c2565b60405180910390a4506114bc6001600055565b50505050565b6001600160a01b03811660009081526004602052604090208054606091906114e990612628565b80601f016020809104026020016040519081016040528092919081815260200182805461151590612628565b80156115625780601f1061153757610100808354040283529160200191611562565b820191906000526020600020905b81548152906001019060200180831161154557829003601f168201915b50505050509050919050565b336001600160a01b037f000000000000000000000000000000000000000000000000000000000000000016146115b7576040516367dfc9f960e01b815260040160405180910390fd5b6115bf611e89565b6001600160a01b038516600090815260036020526040808220815160c081019092528054829082906115f090612628565b80601f016020809104026020016040519081016040528092919081815260200182805461161c90612628565b80156116695780601f1061163e57610100808354040283529160200191611669565b820191906000526020600020905b81548152906001019060200180831161164c57829003601f168201915b505050918352505060018201546001600160a01b03166020820152600282015460408201526003820180546060909201916116a390612628565b80601f01602080910402602001604051908101604052809291908181526020018280546116cf90612628565b801561171c5780601f106116f15761010080835404028352916020019161171c565b820191906000526020600020905b8154815290600101906020018083116116ff57829003601f168201915b5050505050815260200160048201805461173590612628565b80601f016020809104026020016040519081016040528092919081815260200182805461176190612628565b80156117ae5780601f10611783576101008083540402835291602001916117ae565b820191906000526020600020905b81548152906001019060200180831161179157829003601f168201915b505050505081526020016005820180546117c790612628565b80601f01602080910402602001604051908101604052809291908181526020018280546117f390612628565b80156118405780601f1061181557610100808354040283529160200191611840565b820191906000526020600020905b81548152906001019060200180831161182357829003601f168201915b505050919092525050506001600160a01b03871660208083018290528783526080830186905260a08301859052606083018790524260408085019190915260009283526003909152902081519192508291819061189d90826126ad565b5060208201516001820180546001600160a01b0319166001600160a01b0390921691909117905560408201516002820155606082015160038201906118e290826126ad565b50608082015160048201906118f790826126ad565b5060a0820151600582019061190c90826126ad565b50905050806040015181602001516001600160a01b03167f8328c1899ed517da68d051eba8958736a049e7df8796f024f4f6d4faa41f62a78360000151846060015185608001518660a001516040516119689493929190612871565b60405180910390a35061197b6001600055565b5050505050565b336001600160a01b037f000000000000000000000000000000000000000000000000000000000000000016146119cb576040516367dfc9f960e01b815260040160405180910390fd5b6119d3611e89565b611a1e6040518060c0016040528060006001600160a01b031681526020016060815260200160608152602001600081526020016060815260200160006001600160a01b031681525090565b602081810187815260408084018890526001600160a01b038a8116808652606086018990526080860188905286821660a0870152600090815260029094529220835181546001600160a01b0319169316929092178255518291906001820190611a8790826126ad565b5060408201516002820190611a9c90826126ad565b506060820151600382015560808201516004820190611abb90826126ad565b5060a08201518160050160006101000a8154816001600160a01b0302191690836001600160a01b031602179055509050508060a001516001600160a01b03168160600151886001600160a01b03167f5e18314f9ace467b668a842ba6e5f08623134bbb2695f02c54d1aab199048e4e846020015185604001518660800151604051610cd793929190612092565b6001600160a01b0380821660009081526002602081905260408220600581015460018201805460609687968796909593946004850194909101929116908490611b9090612628565b80601f0160208091040260200160405190810160405280929190818152602001828054611bbc90612628565b8015611c095780601f10611bde57610100808354040283529160200191611c09565b820191906000526020600020905b815481529060010190602001808311611bec57829003601f168201915b50505050509350828054611c1c90612628565b80601f0160208091040260200160405190810160405280929190818152602001828054611c4890612628565b8015611c955780601f10611c6a57610100808354040283529160200191611c95565b820191906000526020600020905b815481529060010190602001808311611c7857829003601f168201915b50505050509250818054611ca890612628565b80601f0160208091040260200160405190810160405280929190818152602001828054611cd490612628565b8015611d215780601f10611cf657610100808354040283529160200191611d21565b820191906000526020600020905b815481529060010190602001808311611d0457829003601f168201915b5050505050915093509350935093509193509193565b6001600160a01b0381166000908152600160205260408120600681015481546060938493909290916005830191908390611d7090612628565b80601f0160208091040260200160405190810160405280929190818152602001828054611d9c90612628565b8015611de95780601f10611dbe57610100808354040283529160200191611de9565b820191906000526020600020905b815481529060010190602001808311611dcc57829003601f168201915b50505050509250818054611dfc90612628565b80601f0160208091040260200160405190810160405280929190818152602001828054611e2890612628565b8015611e755780601f10611e4a57610100808354040283529160200191611e75565b820191906000526020600020905b815481529060010190602001808311611e5857829003601f168201915b505050505091509250925092509193909250565b600260005403611edf5760405162461bcd60e51b815260206004820152601f60248201527f5265656e7472616e637947756172643a207265656e7472616e742063616c6c00604482015260640160405180910390fd5b6002600055565b6040518061016001604052806060815260200160006001600160a01b031681526020016000815260200160608152602001606081526020016060815260200160008152602001606081526020016060815260200160608152602001606081525090565b828054828255906000526020600020908101928215611f8f579160200282015b82811115611f8f5782518290611f7f90826126ad565b5091602001919060010190611f69565b50611f9b929150611f9f565b5090565b80821115611f9b576000611fb38282611fbc565b50600101611f9f565b508054611fc890612628565b6000825580601f10611fd8575050565b601f016020900490600052602060002090810190611ff69190611ff9565b50565b5b80821115611f9b5760008155600101611ffa565b80356001600160a01b038116811461202557600080fd5b919050565b60006020828403121561203c57600080fd5b6120458261200e565b9392505050565b6000815180845260005b8181101561207257602081850181015186830182015201612056565b506000602082860101526020601f19601f83011685010191505092915050565b6060815260006120a5606083018661204c565b82810360208401526120b7818661204c565b905082810360408401526120cb818561204c565b9695505050505050565b600082825180855260208086019550808260051b84010181860160005b8481101561212057601f1986840301895261210e83835161204c565b988401989250908301906001016120f2565b5090979650505050505050565b602081526000825161016080602085015261214c61018085018361204c565b9150602085015161216860408601826001600160a01b03169052565b50604085015160608501526060850151601f198086850301608087015261218f848361204c565b935060808701519150808685030160a08701526121ac848361204c565b935060a08701519150808685030160c08701526121c9848361204c565b935060c087015160e087015260e087015191506101008187860301818801526121f285846120d5565b94508088015192505061012081878603018188015261221185846120d5565b94508088015192505061014081878603018188015261223085846120d5565b9088015187820390920184880152935090506120cb83826120d5565b634e487b7160e01b600052604160045260246000fd5b600082601f83011261227357600080fd5b813567ffffffffffffffff8082111561228e5761228e61224c565b604051601f8301601f19908116603f011681019082821181831017156122b6576122b661224c565b816040528381528660208588010111156122cf57600080fd5b836020870160208301376000602085830101528094505050505092915050565b60008060008060008060c0878903121561230857600080fd5b6123118761200e565b9550602087013567ffffffffffffffff8082111561232e57600080fd5b61233a8a838b01612262565b965060408901359550606089013591508082111561235757600080fd5b6123638a838b01612262565b9450608089013591508082111561237957600080fd5b6123858a838b01612262565b935060a089013591508082111561239b57600080fd5b506123a889828a01612262565b9150509295509295509295565b6000806000606084860312156123ca57600080fd5b6123d38461200e565b9250602084013561ffff811681146123ea57600080fd5b9150604084013567ffffffffffffffff81111561240657600080fd5b61241286828701612262565b9150509250925092565b602081526000612045602083018461204c565b600080600080600060a0868803121561244757600080fd5b6124508661200e565b9450602086013567ffffffffffffffff8082111561246d57600080fd5b61247989838a01612262565b9550604088013591508082111561248f57600080fd5b61249b89838a01612262565b945060608801359150808211156124b157600080fd5b6124bd89838a01612262565b935060808801359150808211156124d357600080fd5b506124e088828901612262565b9150509295509295909350565b60008060008060008060c0878903121561250657600080fd5b61250f8761200e565b9550602087013567ffffffffffffffff8082111561252c57600080fd5b6125388a838b01612262565b9650604089013591508082111561254e57600080fd5b61255a8a838b01612262565b955060608901359450608089013591508082111561257757600080fd5b5061258489828a01612262565b92505061259360a0880161200e565b90509295509295509295565b6080815260006125b2608083018761204c565b82810360208401526125c4818761204c565b905082810360408401526125d8818661204c565b91505060018060a01b038316606083015295945050505050565b606081526000612605606083018661204c565b8281036020840152612617818661204c565b915050826040830152949350505050565b600181811c9082168061263c57607f821691505b60208210810361265c57634e487b7160e01b600052602260045260246000fd5b50919050565b601f8211156126a857600081815260208120601f850160051c810160208610156126895750805b601f850160051c820191505b81811015610cea57828155600101612695565b505050565b815167ffffffffffffffff8111156126c7576126c761224c565b6126db816126d58454612628565b84612662565b602080601f83116001811461271057600084156126f85750858301515b600019600386901b1c1916600185901b178555610cea565b600085815260208120601f198616915b8281101561273f57888601518255948401946001909101908401612720565b508582101561275d5787850151600019600388901b60f8161c191681555b5050505050600190811b01905550565b600081518084526020808501808196508360051b8101915082860160005b858110156127b55782840389526127a384835161204c565b9885019893509084019060010161278b565b5091979650505050505050565b60006101008083526127d68184018c61204c565b905082810360208401526127ea818b61276d565b905082810360408401526127fe818a61204c565b90508281036060840152612812818961204c565b90508281036080840152612826818861276d565b905082810360a084015261283a818761204c565b905082810360c084015261284e818661276d565b905082810360e0840152612862818561276d565b9b9a5050505050505050505050565b608081526000612884608083018761204c565b8281036020840152612896818761204c565b905082810360408401526128aa818661204c565b905082810360608401526128be818561204c565b97965050505050505056fea26469706673582212202dc2c01f5521022b73fb7fe1687c659123bf781785aee5468594f138f2c0c51764736f6c63430008110033",
  "linkReferences": {},
  "deployedLinkReferences": {}
}